:1000030075B203D280C28190E600E054E74410F059
:1000130000000090E6047480F00000007402F00019
:1000230000007406F0000000E4F000000090E60118
:1000330074E3F0E4A3F0000000A3F000000090E6F6
:1000430070E04440F0000000E490E609F000000096
:1000530090E61074A0F0A3F0000000A374A2F000D7
:100063000000A37421F0000000A374E2F00000007C
:10007300A3F000000090E6187411F000000090E671
:100083001A7409F000000090E6197411F0000000E2
:1000930090E61B7409F000000043AF0190E680E096
:1000A30054FDF0C280C280D28090E680E020E70455
:0800B300C28180F1D28180EDD1
:030000000200BB40
:0C00BB00787FE4F6D8FD75810702000391
:00000001FF
